:100000000C94E3000C940B010C940B010C940B0169
:100010000C940B010C940B010C940B010C940B0130
:100020000C940B010C940B010C940B010C940B0120
:100030000C940B010C940B010C940B010C940B0110
:100040000C94EC050C940B010C9430080C94730880
:100050000C940B010C940B010C940B010C940B01F0
:100060000C940B010C940B01434F4E464947342C22
:1000700020004D495343322C20004D495343312C2D
:1000800020004750494F2C20004C4F46465F5354A8
:1000900041544E2C20004C4F46465F53544154501F
:1000A0002C20004C4F46465F464C49502C20004CBB
:1000B0004F46465F53454E534E2C20004C4F46460C
:1000C0005F53454E53502C2000424941535F5345E6
:1000D0004E534E2C2000424941535F53454E5350DE
:1000E0002C20004348385345542C200043483753B4
:1000F00045542C20004348365345542C2000434897
:10010000355345542C20004348345345542C20008B
:100110004348335345542C20004348325345542C14
:1001200020004348315345542C20004C4F46462C68
:100130002000434F4E464947332C2000434F4E4644
:100140004947322C2000434F4E464947312C20006E
:1001500049442C2000206D6F6469666965642E0037
:100160005265676973746572200000000007000221
:10017000010000030406000000000000000001026E
:100180000408102040800102040810200102040825
:100190001020040404040404040402020202020203
:1001A00003030303030300000000230026002900CB
:1001B00000000000250028002B00000000002400A3
:1001C00027002A002F0911241FBECFEFD8E0DEBF81
:1001D000CDBF11E0A0E0B1E0E4EDFCE102C005908C
:1001E0000D92A439B107D9F722E0A4E9B1E001C02A
:1001F0001D92AA3BB207E1F711E0C6ECD1E004C0C2
:100200002297FE010E94640EC43CD107C9F70E94E8
:1002100092070C94680E0C940000EF920F931F93BA
:10022000E12C08E010E02AE030E049E050E068E02E
:1002300070E083EA91E00E94060240E052EC61E047
:1002400070E080E192E00E94AE0860E071E080E141
:1002500092E00E94170A60ED77E080E090E00E9453
:10026000650681E08093050283EA91E00E940C0319
:1002700083EA91E00E94580347E160E083EA91E05D
:100280000E94090540EE63E083EA91E00E94AD051B
:1002900063E083EA91E00E94980483EA91E00E947F
:1002A00043036EE171E080E192E01F910F91EF90C6
:1002B0000C94170ACF93DF93EC01809195019091F4
:1002C00096018C179D07A4F488E00E946907892B8A
:1002D000D9F783EA91E00E946D0320919501309156
:1002E00096012F5F3F4F3093960120939501E5CF04
:1002F000DF91CF91089580919401882309F472C011
:1003000066E371E080E192E00E94170A83EA91E0DF
:100310000E9421030E94360660939B0170939C010A
:1003200080939D0190939E0184EF91E00E945A0179
:100330000E94360660939F017093A0018093A101F3
:100340009093A20183EA91E00E94320380919F0181
:100350009091A001A091A101B091A20140919B01B7
:1003600050919C0160919D0170919E01841B950BA1
:10037000A60BB70B8093970190939801A0939901D6
:10038000B0939A0169E471E080E192E00E94E8098B
:1003900040919701509198016091990170919A0153
:1003A0002AE030E080E192E00E94120B67E571E004
:1003B00080E192E00E94E8096091950170919601B8
:1003C0004AE050E080E192E00E94D40A1092940149
:1003D00010929601109295016EE171E080E192E039
:1003E0000C94170A0895CF93C1E080E192E00E9437
:1003F0009F07892B49F080E192E00E94C807883767
:10040000A1F7C0939401F1CFCF910895EF92FF929D
:100410000F931F93CF93DF93EC01F42EFC01ED5962
:10042000FF4FE082798368833B832A8362E370E035
:1004300080E090E00E94650661E08F2D0E94FA0640
:1004400060E08F2D0E94FA0684E090E00E948B0607
:1004500061E08F2D0E94FA0684E190E00E948B06F5
:1004600061E08DE00E94FA0661E08BE00E94FA06EE
:1004700061E08AE00E94FA0660E08DE00E943307A6
:1004800060E08BE00E94330761E08AE00E9433075E
:100490008CB580618CBD8CB580648CBD8CB58F7D36
:1004A0008CBD8CB5837F84608CBD0430110571F0E8
:1004B0000830110531F00130110551F41D830C8312
:1004C00007C024E030E03D832C8302C01D821C82E3
:1004D0009CB59C7F8C81982B9CBD9DB59E7F8C810B
:1004E000982B9DBD60E088810E94FA0661E08A81B8
:1004F0000E94FA0661E08A810E94330761E08F2D35
:10050000DF91CF911F910F91FF90EF900C943307E3
:10051000611103C060E571E072C0613019F466E4F6
:1005200071E06DC0623019F46CE371E068C0633053
:1005300019F462E371E063C0643019F46BE271E0B6
:100540005EC0653019F462E271E059C0663019F49A
:1005500069E171E054C0673019F460E171E04FC0A7
:10056000683019F467E071E04AC0693019F46EEF41
:1005700070E045C06A3019F465EF70E040C06B3040
:1005800019F46CEE70E03BC06C3019F463EE70E06F
:1005900036C06D3019F466ED70E031C06E3019F47C
:1005A00069EC70E02CC06F3019F46CEB70E027C080
:1005B000603119F46FEA70E022C0613119F463EA26
:1005C00070E01DC0623119F466E970E018C0633153
:1005D00019F469E870E013C0643119F462E870E05E
:1005E0000EC0653119F46AE770E009C0663119F48C
:1005F00062E770E004C0673131F468E670E080E1E2
:1006000092E00C94C3090895F8946EBD0DB407FEF2
:10061000FDCF78948EB50895CF93DF93EC0160E021
:100620008A810E94330766E0CE010E9404038CE0B9
:1006300090E00E948B0661E08A81DF91CF910C945B
:100640003307CF93DF93EC0160E08A810E94330788
:1006500068E0CE010E94040361E08A81DF91CF91BE
:100660000C943307CF93DF93EC0160E08A810E9402
:1006700033076AE0CE010E94040361E08A81DF91C2
:10068000CF910C943307CF93DF93EC0160E08A8124
:100690000E94330760E1CE010E94040361E08A8179
:1006A0000E94330783E090E0DF91CF910C948B069A
:1006B000CF93DF93EC0160E08A810E94330761E110
:1006C000CE010E94040361E08A810E94330783E027
:1006D00090E0DF91CF910C948B064F925F926F92D6
:1006E0007F92AF92BF92CF92DF92EF92FF920F93E1
:1006F0001F93CF93DF93EC0160E08A810E94330760
:1007000003E010E060E0CE010E940403DE80C12C13
:100710009601282BC9019F838E8301501109011571
:10072000110581F78E01005E1F4F6E0153E0A52E6B
:10073000B12C60E0CE010E940403F60142A153A156
:1007400064A175A1762F652F542F4427482B42A30F
:1007500053A364A375A3F1E0AF1AB108A114B104C7
:1007600041F724E0C20ED11CC016D106F9F6FE01F5
:10077000ED59FF4F80818823F1F143E0C42ED12C45
:1007800060E0CE010E940403FE80E12CF701E82B1B
:10079000CF0199878887F1E0CF1AD108C114D1041D
:1007A00079F77E0123E0A22EB12C670132E4C30E5B
:1007B000D11C60E0CE010E940403F601408151810A
:1007C00062817381762F652F542F4427482B4083F5
:1007D000518362837383F1E0AF1AB108A114B104AD
:1007E00041F724E0E20EF11CE016F106D9F680E1B3
:1007F000A82EB12C03C098E0A92EB12C61E08A810B
:100800000E9433077E016E0100E010E0F60182A134
:1008100093A1A4A1B5A1F4E0EF0EF11CA7FF02C0C3
:10082000BF6F01C0BB27F701868F978FA0A3B1A32D
:100830000115110509F04CC06AA17BA18CA19DA1F5
:100840000E94250D2B013C0160E671E080E192E001
:100850000E94E8094AA15BA16CA17DA120E130E0E2
:1008600080E192E00E94EC0A60E671E080E192E0B3
:100870000E94E80920E130E0B301A20180E192E0AA
:100880000E940F0C20E030E040E054E3C301B201CD
:100890000E94D90D26E636E646EE5FE30E94D90DAA
:1008A0002B013C0165E671E080E192E00E94E809DD
:1008B00026E636E646EE5FE3C301B2010E94220C53
:1008C000AB01BC0122E030E080E192E00E940F0C1D
:1008D0000F5F1F4FF4E0CF0ED11C0A151B050CF45F
:1008E00095CFDF91CF911F910F91FF90EF90DF9007
:1008F000CF90BF90AF907F906F905F904F90089592
:10090000CF93C62F6DE671E080E192E00E94E80986
:10091000C03130F460E771E080E192E00E94E809C4
:1009200040E150E06C2F80E192E0CF910C940B0BF2
:10093000EF92FF920F931F93CF93DF93EC01F62E6C
:1009400060E08A810E94330760E26F0DCE010E9451
:10095000040360E0CE010E9404030F2D10E060E06C
:10096000CE010E9404030C0F1D1FF801828761E075
:100970008A810E943307FE01EE59FF4F8081882350
:1009800009F43EC06F2DCE010E9488026F2DCE016A
:100990000E94800462E771E080E192E00E94E80931
:1009A000F8016285CE010E94800462E771E080E177
:1009B00092E00E94E809C7E0D0E07801FAE0EF0E8B
:1009C000F11CF701608170E00C2E02C075956795EF
:1009D0000A94E2F7617077274AE050E080E192E004
:1009E0000E94CC0ACC2331F062E771E080E192E012
:1009F0000E94E809219728F780E192E00E94F1091E
:100A0000F8018285DF91CF911F910F91FF90EF90B8
:100A100008955F926F927F928F929F92AF92BF9252
:100A2000CF92DF92EF92FF920F931F93CF93DF93BA
:100A3000EC01562EE42E60E08A810E94330760E2CA
:100A4000650DCE010E9404036E2DCE010E940403A9
:100A500000E010E0F12C6E01C50CD11CE016F1068F
:100A60005CF060E0CE010E940403F601E00FF11F8C
:100A700082870F5F1F4FF2CF61E08A810E943307A8
:100A8000FE01EE59FF4F8081882309F456C000E033
:100A900010E05E01A50CB11CB7E08B2E912CD52C7B
:100AA000D00E6D2DCE010E9488026D2DCE010E94C8
:100AB000800462E771E080E192E00E94E80965014C
:100AC000C00ED11EF6016285CE010E94800462E74D
:100AD00071E080E192E00E94E809612C712CF6013E
:100AE000628570E0C4018619970902C07595679503
:100AF0008A95E2F7617077274AE050E080E192E062
:100B00000E94CC0AF7E06F16710431F062E771E0E1
:100B100080E192E00E94E8098FEF681A780AE8E025
:100B20006E167104E1F680E192E00E94F1090F5F18
:100B30001F4FE016F1060CF0B2CFDF91CF911F915D
:100B40000F91FF90EF90DF90CF90BF90AF909F906C
:100B50008F907F906F905F9008950F931F93CF9326
:100B6000DF93EC01162F042F60E08A810E94330787
:100B700060E4610FCE010E94040360E0CE010E9498
:100B80000403602FCE010E94040361E08A810E9469
:100B90003307FE01E10FF11D0287FE01EE59FF4F01
:100BA00080818823A1F060E671E080E192E00E94FC
:100BB000C309612FCE010E94800465E571E080E1E8
:100BC00092E0DF91CF911F910F910C94050ADF9174
:100BD000CF911F910F9108951F920F920FB60F9210
:100BE00011242F933F938F939F93AF93BF93809143
:100BF000080290910902A0910A02B0910B02309173
:100C0000070223E0230F2D3720F40196A11DB11D0B
:100C100005C026E8230F0296A11DB11D20930702EF
:100C20008093080290930902A0930A02B0930B02EA
:100C300080910C0290910D02A0910E02B0910F02D2
:100C40000196A11DB11D80930C0290930D02A093FB
:100C50000E02B0930F02BF91AF919F918F913F9180
:100C60002F910F900FBE0F901F9018952FB7F894EB
:100C7000609108027091090280910A0290910B0222
:100C80002FBF08953FB7F89480910C0290910D0208
:100C9000A0910E02B0910F0226B5A89B05C02F3F70
:100CA00019F00196A11DB11D3FBF6627782F892F2E
:100CB0009A2F620F711D811D911D42E0660F771FF3
:100CC000881F991F4A95D1F70895CF92DF92EF922E
:100CD000FF92CF93DF936B017C010E944206EB01F0
:100CE000C114D104E104F10479F00E9442066C1BA6
:100CF0007D0B683E7340A0F381E0C81AD108E1087B
:100D0000F108C851DC4FECCFDF91CF91FF90EF900D
:100D1000DF90CF9008950197009739F0880F991FC1
:100D2000880F991F02970197F1F70895789484B579
:100D3000826084BD84B5816084BD85B5826085BDD7
:100D400085B5816085BDEEE6F0E0808181608083BD
:100D5000E1E8F0E0108280818260808380818160A0
:100D60008083E0E8F0E0808181608083E1EBF0E067
:100D7000808184608083E0EBF0E08081816080830B
:100D8000EAE7F0E0808184608083808182608083F4
:100D90008081816080838081806880831092C1001F
:100DA0000895833081F028F4813099F08230A1F0E9
:100DB00008958630A9F08730B9F08430D1F480915D
:100DC00080008F7D03C0809180008F7780938000AA
:100DD000089584B58F7702C084B58F7D84BD089552
:100DE0008091B0008F7703C08091B0008F7D809399
:100DF000B0000895CF93DF9390E0FC01E258FE4FDE
:100E00002491FC01EE56FE4F8491882349F190E035
:100E1000880F991FFC01E654FE4FA591B4918055AF
:100E20009E4FFC01C591D4919FB7611108C0F89401
:100E30008C91209582238C93888182230AC0623012
:100E400051F4F8948C91322F309583238C938881C0
:100E5000822B888304C0F8948C91822B8C939FBF43
:100E6000DF91CF9108950F931F93CF93DF931F923C
:100E7000CDB7DEB7282F30E0F901E659FE4F849157
:100E8000F901E258FE4F1491F901EE56FE4F04911C
:100E90000023C9F0882321F069830E94D10669816B
:100EA000E02FF0E0EE0FFF1FE055FE4FA591B4914B
:100EB0009FB7F8948C91611103C01095812301C0F4
:100EC000812B8C939FBF0F90DF91CF911F910F913A
:100ED0000895CF93DF93282F30E0F901E659FE4FB4
:100EE0008491F901E258FE4FD491F901EE56FE4F7C
:100EF000C491CC2391F081110E94D106EC2FF0E037
:100F0000EE0FFF1FEA55FE4FA591B4912C912D23B2
:100F100081E090E021F480E002C080E090E0DF9189
:100F2000CF9108950E9496060E940D01CAE6D8E06E
:100F30000E947B012097E1F30E946A08F9CFFC012F
:100F400024853585F901E05CFF4F808191813296DF
:100F500020813181821B930B8F7399270895FC01A7
:100F600084859585FC01E05CFF4F4081518132967C
:100F7000208131814217530741F00190F081E02D2B
:100F8000E80FF91F808190E008958FEF9FEF08959B
:100F9000FC0184859585FC01E05CFF4F4081518117
:100FA0003296208131814217530779F0A081B181B7
:100FB000A80FB91F8C91208131812F5F3F4F2F7374
:100FC00033273183208390E008958FEF9FEF0895BA
:100FD000FC0181A1882329F0A489B5898C9186FF21
:100FE000FBCF11A20895CF93DF93FC0126853785AF
:100FF000D901A05CBF4F8D919C91119701968F7381
:101000009927E901CE5BDF4F488159818417950705
:10101000D9F30D90BC91A02DA20FB31F6C93A685A0
:10102000B785A05CBF4F11969C938E93A689B78914
:101030002C9181E090E0078C02C0880F991F0A94E0
:10104000E2F7282B2C9381E081A30488F589E02D19
:1010500080818064808381E090E0DF91CF9108956A
:101060001F920F920FB60F9211242F933F934F931D
:101070008F939F93EF93FF938091C00082FD1CC0DC
:101080004091C6008091B6029091B70201968F738D
:1010900099272091B8023091B9028217930771F015
:1010A000E091B602F091B702EA58FD4F4083909369
:1010B000B7028093B60202C08091C600FF91EF9103
:1010C0009F918F914F913F912F910F900FBE0F9055
:1010D0001F90189580E192E00E949F07892B11F0E4
:1010E0000C94F30108951F920F920FB60F921124E2
:1010F0002F933F938F939F93EF93FF9320917202CF
:10110000309173028091740290917502281739070B
:1011100031F48091C1008F7D8093C10014C0E091B3
:101120007402F0917502EE5CFD4F20818091740293
:101130009091750201968F73992790937502809311
:1011400074022093C600FF91EF919F918F913F9180
:101150002F910F900FBE0F901F901895CF92DF9296
:10116000EF92FF92CF93DF93EC016A017B0141156F
:1011700081EE580761057105F9F0EC89FD8981E080
:1011800090E008A002C0880F991F0A94E2F78083BC
:1011900060E079E08DE390E0A70196010E94400EA7
:1011A00021503109410951095695479537952795A1
:1011B000211580E1380798F0EC89FD89108260E8FC
:1011C00074E88EE190E0A70196010E94400E215044
:1011D0003109410951095695479537952795E88971
:1011E000F9893083EA89FB89208319A2EE89FF8976
:1011F000408181E090E09C010C8C02C0220F331FE3
:101200000A94E2F7422B4083EE89FF8940819C01DA
:101210000D8C02C0220F331F0A94E2F7422B408349
:10122000EE89FF8940819C010E8C02C0220F331F82
:101230000A94E2F7422B4083EE89FF8920810F8CCC
:1012400002C0880F991F0A94E2F780958223808359
:10125000DF91CF91FF90EF90DF90CF9008951092A3
:1012600013021092120288EE93E0A0E0B0E08093A7
:10127000140290931502A0931602B093170289E707
:1012800091E0909311028093100286E792E0909390
:101290001D0280931C0282E392E090931F028093D0
:1012A0001E0285EC90E0909321028093200284EC52
:1012B00090E0909323028093220280EC90E0909340
:1012C00025028093240281EC90E090932702809382
:1012D000260282EC90E0909329028093280286EC0B
:1012E00090E090932B0280932A0284E080932C025A
:1012F00083E080932D0287E080932E0285E0809327
:101300002F0281E0809330020895CF92DF92EF9216
:10131000FF920F931F93CF93DF936C017A01EB0140
:10132000E60EF71E00E010E0CE15DF0561F06991D2
:10133000D601ED91FC910190F081E02DC601099557
:10134000080F191FF1CFC801DF91CF911F910F91A5
:10135000FF90EF90DF90CF9008956115710581F0B7
:10136000DB010D900020E9F7AD0141505109461B0A
:10137000570BDC01ED91FC910280F381E02D099483
:1013800080E090E00895EF92FF920F931F93CF9328
:10139000DF938C01FB01C0E0D0E064917F018FEF0F
:1013A000E81AF80A662361F0D801ED91FC910190EA
:1013B000F081E02DC8010995C80FD91FF701EDCFC5
:1013C000CE01DF91CF911F910F91FF90EF90089583
:1013D0000C94AD09DC01ED91FC910190F081E02DC0
:1013E00009940F931F93CF93DF93EC016DE00E945C
:1013F000EA098C016AE0CE010E94EA09800F911F80
:10140000DF91CF911F910F9108950F931F93CF9369
:10141000DF93EC010E94C3098C01CE010E94F10907
:10142000800F911FDF91CF911F910F9108950F931E
:101430001F93CF93DF93EC010E94AD098C01CE0185
:101440000E94F109800F911FDF91CF911F910F91A1
:1014500008958F929F92AF92BF92CF92DF92EF92B8
:10146000FF920F931F93CF93DF93CDB7DEB7A19772
:101470000FB6F894DEBF0FBECDBF7C01C42EE52FA2
:10148000CB01D22E19A221E02D1510F02AE0D22E88
:101490008E010F5D1F4F8D2C912CA12CB12C6C2D2A
:1014A0007E2FA50194010E94400E8C2DD29E8019A2
:1014B0001124015011098A3014F4805D01C0895C47
:1014C000F8018083211531054105510521F0C22E17
:1014D000E32FCA01E4CFB801C7010E94AD09A1966C
:1014E0000FB6F894DEBF0FBECDBFDF91CF911F9135
:1014F0000F91FF90EF90DF90CF90BF90AF909F90B3
:101500008F900895CF92DF92EF92FF920F931F93E7
:10151000CF93DF93EC016A017B012115310579F44A
:10152000E881F9810190F081E02D642FDF91CF9166
:101530001F910F91FF90EF90DF90CF9009942A3088
:101540003105E9F477FF1AC06DE20E94EA098C01C7
:1015500044275527BA014C195D096E097F092AE015
:10156000CE010E94290A800F911FDF91CF911F9118
:101570000F91FF90EF90DF90CF9008952AE0B70190
:10158000A601CE01DF91CF911F910F91FF90EF90B7
:10159000DF90CF900C94290A9A01AB01662757FD82
:1015A0006095762F0C94820A0F931F93CF93DF934D
:1015B000EC019A01AB01662757FD6095762F0E94DA
:1015C000820A8C01CE010E94F109800F911FDF91E8
:1015D000CF911F910F9108950F931F93CF93DF9396
:1015E000EC010E94820A8C01CE010E94F109800F59
:1015F000911FDF91CF911F910F9108952115310512
:1016000041F4DC01ED91FC910190F081E02D642F1B
:1016100009940C94290A9A01462F50E060E070E08A
:101620000C94FE0A0F931F93CF93DF93EC010E945B
:10163000FE0A8C01CE010E94F109800F911FDF91FB
:10164000CF911F910F9108954F925F926F927F9269
:101650008F929F92AF92BF92CF92DF92EF92FF92C2
:101660000F931F93CF93DF93EC016A017B01B22E9E
:101670009A01AB01C701B6010E943C0E882319F004
:1016800065E871E027C026013701E89477F82FEF6D
:101690003FEF4FE75FE7C301B2010E943C0E8111AB
:1016A0000DC02FEF3FEF4FE75FE7C301B2010E948C
:1016B000860C18161CF469E871E00CC02FEF3FEFA0
:1016C0004FE75FE4C701B6010E94D50D1816ACF4D0
:1016D0006DE871E0CE01DF91CF911F910F91FF90E6
:1016E000EF90DF90CF90BF90AF909F908F907F90C2
:1016F0006F905F904F900C94AD092FEF3FEF4FE745
:101700005FECC701B6010E94860C87FDE1CF20E0A7
:1017100030E0A901C701B6010E94860C87FF0AC00C
:101720006DE2CE010E94EA098C01F7FAF094F7F815
:10173000F09402C000E010E0A12C60E070E080E0D6
:101740009FE3AB1441F020E030E040E251E40E941E
:101750008A0CA394F6CF9B01AC01C701B6010E948D
:10176000220C6B017C010E94F70C2B013C010E94B2
:10177000230D9B01AC01C701B6010E94210C6B0136
:101780007C012AE0B301A201CE010E94290A080FC0
:10179000191FBB2039F061E971E0CE010E94AD094B
:1017A000080F191F7B2C772041F120E030E040E248
:1017B00051E4C701B6010E94D90D6B017C010E9462
:1017C000F20C4B01AA2497FCA094BA2C2AE030E03A
:1017D000B501A401CE010E94820A080F191FC5019C
:1017E000B4010E94250D9B01AC01C701B6010E9406
:1017F000210C6B017C017A94D6CFC801DF91CF9187
:101800001F910F91FF90EF90DF90CF90BF90AF901E
:101810009F908F907F906F905F904F9008950F935F
:101820001F93CF93DF93EC010E94240B8C01CE0118
:101830000E94F109800F911FDF91CF911F910F91AD
:1018400008955058BB27AA270ED075C166D130F035
:101850006BD120F031F49F3F11F41EF45BC10EF404
:10186000E095E7FB51C1E92F77D180F3BA17620702
:1018700073078407950718F071F49EF58FC10EF475
:10188000E0950B2EBA2FA02D0B01B90190010C0190
:10189000CA01A0011124FF27591B99F0593F50F4A8
:1018A000503E68F11A16F040A22F232F342F442700
:1018B000585FF3CF469537952795A795F0405395F8
:1018C000C9F77EF41F16BA0B620B730B840BBAF0C8
:1018D0009150A1F0FF0FBB1F661F771F881FC2F733
:1018E0000EC0BA0F621F731F841F48F48795779547
:1018F0006795B795F7959E3F08F0B3CF9395880FFE
:1019000008F09927EE0F979587950895D9D008F498
:1019100081E008950CD00FC107D140F0FED030F027
:1019200021F45F3F19F0F0C0511139C1F3C014D157
:1019300098F39923C9F35523B1F3951B550BBB2796
:10194000AA2762177307840738F09F5F5F4F220F43
:10195000331F441FAA1FA9F333D00E2E3AF0E0E83C
:1019600030D091505040E695001CCAF729D0FE2F88
:1019700027D0660F771F881FBB1F2617370748071A
:10198000AB07B0E809F0BB0B802DBF01FF279358D0
:101990005F4F2AF09E3F510568F0B6C000C15F3F1F
:1019A000ECF3983EDCF3869577956795B795F795B8
:1019B0009F5FC9F7880F911D9695879597F90895B0
:1019C000E1E0660F771F881FBB1F6217730784074C
:1019D000BA0720F0621B730B840BBA0BEE1F88F75B
:1019E000E095089504D06894B111D9C00895BCD091
:1019F00088F09F5790F0B92F9927B751A0F0D1F0F8
:101A0000660F771F881F991F1AF0BA95C9F712C081
:101A1000B13081F0C3D0B1E00895C0C0672F782FF6
:101A20008827B85F39F0B93FCCF3869577956795ED
:101A3000B395D9F73EF490958095709561957F4F59
:101A40008F4F9F4F0895E89409C097FB3EF49095FF
:101A50008095709561957F4F8F4F9F4F9923A9F087
:101A6000F92F96E9BB279395F69587957795679516
:101A7000B795F111F8CFFAF4BB0F11F460FF1BC05A
:101A80006F5F7F4F8F4F9F4F16C0882311F096E9ED
:101A900011C0772321F09EE8872F762F05C066239B
:101AA00071F096E8862F70E060E02AF09A95660F54
:101AB000771F881FDAF7880F9695879597F908950D
:101AC000990F0008550FAA0BE0E8FEEF161617064F
:101AD000E807F907C0F012161306E407F50798F0B7
:101AE000621B730B840B950B39F40A2661F0232BD0
:101AF000242B252B21F408950A2609F4A140A6954C
:101B00008FEF811D811D089597F99F6780E870E030
:101B100060E008959FEF80EC089500240A94161663
:101B2000170618060906089500240A9412161306CB
:101B3000140605060895092E0394000C11F4882359
:101B400052F0BB0F40F4BF2B11F460FF04C06F5F75
:101B50007F4F8F4F9F4F089557FD9058440F551F4B
:101B600059F05F3F71F04795880F97FB991F61F01F
:101B70009F3F79F087950895121613061406551F96
:101B8000F2CF4695F1DF08C0161617061806991F02
:101B9000F1CF86957105610508940895E894BB27F7
:101BA00066277727CB0197F908958ADF08F48FEF2E
:101BB00008950BD0C0CFB1DF28F0B6DF18F0952321
:101BC00009F0A2CFA7CF1124EACFC6DFA0F3959FDB
:101BD000D1F3950F50E0551F629FF001729FBB2714
:101BE000F00DB11D639FAA27F00DB11DAA1F649FC0
:101BF0006627B00DA11D661F829F2227B00DA11D73
:101C0000621F739FB00DA11D621F839FA00D611DF8
:101C1000221F749F3327A00D611D231F849F600D19
:101C2000211D822F762F6A2F11249F5750408AF052
:101C3000E1F088234AF0EE0FFF1FBB1F661F771FDE
:101C4000881F91505040A9F79E3F510570F05CCF1E
:101C5000A6CF5F3FECF3983EDCF3869577956795CA
:101C6000B795F795E7959F5FC1F7FE2B880F911DFC
:101C70009695879597F9089523DF880B990B08951A
:101C8000A1E21A2EAA1BBB1BFD010DC0AA1FBB1F80
:101C9000EE1FFF1FA217B307E407F50720F0A21BF2
:101CA000B30BE40BF50B661F771F881F991F1A945F
:101CB00069F760957095809590959B01AC01BD0189
:101CC000CF010895EE0FFF1F0590F491E02D0994C8
:041CD000F894FFCFB6
:101CD400414453313239392D41726475696E6F2034
:101CE400554E4F204578616D706C652032005072FE
:101CF4006573732027782720746F20626567696E87
:101D0400207465737400656E746572696E672074FF
:101D1400657374206C6F6F7000456C6170736564DB
:101D24002054696D65200053616D706C65732000EB
:101D340052617720005363616C6564200030780041
:101D440030002C200000000000F30785099F07C81D
:101D540007AF07E8076E616E00696E66006F76660E
:041D6400002E00004D
:00000001FF
