:100000000C94E3000C940B010C940B010C940B0169
:100010000C940B010C940B010C940B010C940B0130
:100020000C940B010C940B010C940B010C940B0120
:100030000C940B010C940B010C940B010C940B0110
:100040000C9465050C940B010C94A9070C94EC0717
:100050000C940B010C940B010C940B010C940B01F0
:100060000C940B010C940B01434F4E464947342C22
:1000700020004D495343322C20004D495343312C2D
:1000800020004750494F2C20004C4F46465F5354A8
:1000900041544E2C20004C4F46465F53544154501F
:1000A0002C20004C4F46465F464C49502C20004CBB
:1000B0004F46465F53454E534E2C20004C4F46460C
:1000C0005F53454E53502C2000424941535F5345E6
:1000D0004E534E2C2000424941535F53454E5350DE
:1000E0002C20004348385345542C200043483753B4
:1000F00045542C20004348365345542C2000434897
:10010000355345542C20004348345345542C20008B
:100110004348335345542C20004348325345542C14
:1001200020004348315345542C20004C4F46462C68
:100130002000434F4E464947332C2000434F4E4644
:100140004947322C2000434F4E464947312C20006E
:1001500049442C2000206D6F6469666965642E0037
:100160005265676973746572200000000007000221
:10017000010000030406000000000000000001026E
:100180000408102040800102040810200102040825
:100190001020040404040404040402020202020203
:1001A00003030303030300000000230026002900CB
:1001B00000000000250028002B00000000002400A3
:1001C00027002A00A80811241FBECFEFD8E0DEBF09
:1001D000CDBF11E0A0E0B1E0E6E1F5E102C005909D
:1001E0000D92A633B107D9F722E0A6E3B1E001C032
:1001F0001D92AC35B207E1F711E0C6ECD1E004C0C6
:100200002297FE010E94850AC43CD107C9F70E94CB
:100210000B070C94890A0C940000EF920F931F9324
:10022000E12C08E010E02AE030E049E050E068E02E
:1002300070E085E491E00E94CA0140E052EC61E088
:1002400070E082EB91E00E94270860E071E082EBB1
:1002500091E00E94900960ED77E080E090E00E94DC
:10026000DE051092A70185E491E00E94D00285E4AA
:1002700091E00E941C0347E160E085E491E00E9468
:10028000BA0340EE63E085E491E00E945E0463E01F
:1002900085E491E00E94490385E491E01F910F916C
:1002A000EF900C940703CF93DF93EC01809137011B
:1002B000909138018C179D07A4F488E00E94E20613
:1002C000892BD9F785E491E00E949D0420913701A4
:1002D000309138012F5F3F4F309338012093370121
:1002E000E5CFDF91CF91089585E491E00E94E5028A
:1002F0000E94AF0560933D0170933E0180933F01E2
:100300009093400184EF91E00E9453010E94AF0559
:1003100060934101709342018093430190934401A3
:1003200085E491E00E94F6028091410190914201A2
:10033000A0914301B091440140913D0150913E0193
:1003400060913F0170914001841B950BA60BB70B88
:100350008093390190933A01A0933B01B0933C0103
:100360001092360110923801109237010895CF9300
:10037000C1E082EB91E00E941807892B49F082EBE3
:1003800091E00E9441078837A1F7C0933601F1CF71
:10039000CF910895EF92FF920F931F93CF93DF9326
:1003A000EC01F42EFC01ED59FF4FE0827983688364
:1003B0003B832A8362E370E080E090E00E94DE05E8
:1003C00061E08F2D0E94730660E08F2D0E947306FE
:1003D00084E090E00E94040661E08F2D0E94730685
:1003E00084E190E00E94040661E08DE00E947306C3
:1003F00061E08BE00E94730661E08AE00E94730670
:1004000060E08DE00E94AC0660E08BE00E94AC06EC
:1004100061E08AE00E94AC068CB580618CBD8CB531
:1004200080648CBD8CB58F7D8CBD8CB5837F8460E2
:100430008CBD0430110571F00830110531F0013028
:10044000110551F41D830C8307C024E030E03D8387
:100450002C8302C01D821C829CB59C7F8C81982BB2
:100460009CBD9DB59E7F8C81982B9DBD60E0888151
:100470000E94730661E08A810E94730661E08A81AE
:100480000E94AC0661E08F2DDF91CF911F910F91FB
:10049000FF90EF900C94AC06611103C060E571E031
:1004A00072C0613019F466E471E06DC0623019F415
:1004B0006CE371E068C0633019F462E371E063C01B
:1004C000643019F46BE271E05EC0653019F462E2E9
:1004D00071E059C0663019F469E171E054C06730C9
:1004E00019F460E171E04FC0683019F467E071E021
:1004F0004AC0693019F46EEF70E045C06A3019F4F3
:1005000065EF70E040C06B3019F46CEE70E03BC0FA
:100510006C3019F463EE70E036C06D3019F466ED9E
:1005200070E031C06E3019F469EC70E02CC06F30AF
:1005300019F46CEB70E027C0603119F46FEA70E0D9
:1005400022C0613119F463EA70E01DC0623119F410
:1005500066E970E018C0633119F469E870E013C00F
:10056000643119F462E870E00EC0653119F46AE78D
:1005700070E009C0663119F462E770E004C06731C9
:1005800031F468E670E082EB91E00C943C09089548
:10059000F8946EBD0DB407FEFDCF78948EB5089526
:1005A000CF93DF93EC0160E08A810E94AC0666E0A5
:1005B000CE010E94C8028CE090E00E94040661E037
:1005C0008A81DF91CF910C94AC06CF93DF93EC013D
:1005D00060E08A810E94AC0668E0CE010E94C802F9
:1005E00061E08A81DF91CF910C94AC06CF93DF93C9
:1005F000EC0160E08A810E94AC066AE0CE010E94B4
:10060000C80261E08A81DF91CF910C94AC06CF9350
:10061000DF93EC0160E08A810E94AC0660E1CE01CC
:100620000E94C80261E08A810E94AC0683E090E0EB
:10063000DF91CF910C940406CF93DF93EC0160E03F
:100640008A810E94AC0661E1CE010E94C80261E08D
:100650008A810E94AC0683E090E0DF91CF910C94F8
:100660000406CF93C62F6EE171E082EB91E00E9409
:100670006109C03130F461E271E082EB91E00E94E7
:10068000610940E150E06C2F82EB91E0CF910C9436
:100690005A0AEF92FF920F931F93CF93DF93EC01CF
:1006A000F62E60E08A810E94AC0660E26F0DCE01FA
:1006B0000E94C80260E0CE010E94C8020F2D10E027
:1006C00060E0CE010E94C8020C0F1D1FF801828756
:1006D00061E08A810E94AC06FE01EE59FF4F8081E5
:1006E000882309F43EC06F2DCE010E944C026F2D6D
:1006F000CE010E94310363E271E082EB91E00E943F
:100700006109F8016285CE010E94310363E271E064
:1007100082EB91E00E946109C7E0D0E07801FAE045
:10072000EF0EF11CF701608170E00C2E02C0759590
:1007300067950A94E2F7617077274AE050E082EB10
:1007400091E00E94450ACC2331F063E271E082EB34
:1007500091E00E946109219728F782EB91E00E94C5
:100760006A09F8018285DF91CF911F910F91FF9067
:10077000EF9008955F926F927F928F929F92AF92C7
:10078000BF92CF92DF92EF92FF920F931F93CF937E
:10079000DF93EC01562EE42E60E08A810E94AC06C5
:1007A00060E2650DCE010E94C8026E2DCE010E944E
:1007B000C80200E010E0F12C6E01C50CD11CE0165F
:1007C000F1065CF060E0CE010E94C802F601E00F85
:1007D000F11F82870F5F1F4FF2CF61E08A810E9475
:1007E000AC06FE01EE59FF4F8081882309F456C004
:1007F00000E010E05E01A50CB11CB7E08B2E912C3F
:10080000D52CD00E6D2DCE010E944C026D2DCE0147
:100810000E94310363E271E082EB91E00E94610982
:100820006501C00ED11EF6016285CE010E94310322
:1008300063E271E082EB91E00E946109612C712C0E
:10084000F601628570E0C4018619970902C07595AA
:1008500067958A95E2F7617077274AE050E082EB6E
:1008600091E00E94450AF7E06F16710431F063E2EF
:1008700071E082EB91E00E9461098FEF681A780ABB
:10088000E8E06E167104E1F682EB91E00E946A09DD
:100890000F5F1F4FE016F1060CF0B2CFDF91CF9142
:1008A0001F910F91FF90EF90DF90CF90BF90AF908E
:1008B0009F908F907F906F905F9008950F931F93FC
:1008C000CF93DF93EC01162F042F60E08A810E9402
:1008D000AC0660E4610FCE010E94C80260E0CE0168
:1008E0000E94C802602FCE010E94C80261E08A8186
:1008F0000E94AC06FE01E10FF11D0287FE01EE59D8
:10090000FF4F80818823A1F060E671E082EB91E0E7
:100910000E943C09612FCE010E94310365E571E020
:1009200082EB91E0DF91CF911F910F910C947E09A2
:10093000DF91CF911F910F910895AF92BF92CF9207
:10094000DF92EF92FF920F931F93CF93DF938C016F
:1009500060E0FC0182810E94AC06C3E0D0E060E070
:10096000C8010E94C802F801D680C12C9601282B2C
:10097000C901978386832197209789F7E801A0967C
:10098000680133E0A32EB12C60E0C8010E94C802C8
:10099000F60142A153A164A175A1762F652F542FB2
:1009A0004427482B42A353A364A375A3F1E0AF1AD5
:1009B000B108A114B10441F724E0C20ED11CCC1639
:1009C000DD06F9F6F801ED59FF4F8081882309F41F
:1009D0003FC023E0C22ED12C60E0C8010E94C802B3
:1009E000F801F680E12C9701282BC90191878087B7
:1009F00031E0C31AD108C114D10471F7780183E042
:100A0000A82EB12C670132E4C30ED11C60E0C801EE
:100A10000E94C802F6014081518162817381762F64
:100A2000652F542F4427482B40835183628373835F
:100A3000F1E0AF1AB108A114B10441F724E0E20ECD
:100A4000F11CEC16FD06D9F6C0E1EC2EF12C03C02A
:100A5000D8E0ED2EF12C61E0F80182810E94AC0615
:100A6000E801680100E010E0F60142A153A164A191
:100A700075A1249667FF02C07F6F01C077274E8F54
:100A80005F8F68A379A3E091B201F091B301019067
:100A9000F081E02D6E8D82EB91E0099582EB91E083
:100AA0000E9461070F5F1F4FF4E0CF0ED11C0E159F
:100AB0001F05D4F2DF91CF911F910F91FF90EF901E
:100AC000DF90CF90BF90AF9008951F920F920FB616
:100AD0000F9211242F933F938F939F93AF93BF93C4
:100AE0008091AA019091AB01A091AC01B091AD01B0
:100AF0003091A90123E0230F2D3720F40196A11D89
:100B0000B11D05C026E8230F0296A11DB11D20933B
:100B1000A9018093AA019093AB01A093AC01B0937B
:100B2000AD018091AE019091AF01A091B001B09163
:100B3000B1010196A11DB11D8093AE019093AF014B
:100B4000A093B001B093B101BF91AF919F918F91EC
:100B50003F912F910F900FBE0F901F9018952FB7B8
:100B6000F8946091AA017091AB018091AC019091D1
:100B7000AD012FBF08953FB7F8948091AE019091D9
:100B8000AF01A091B001B091B10126B5A89B05C0FD
:100B90002F3F19F00196A11DB11D3FBF6627782F89
:100BA000892F9A2F620F711D811D911D42E0660FE2
:100BB000771F881F991F4A95D1F70895CF92DF922A
:100BC000EF92FF92CF93DF936B017C010E94BB05F4
:100BD000EB01C114D104E104F10479F00E94BB05DA
:100BE0006C1B7D0B683E7340A0F381E0C81AD108EE
:100BF000E108F108C851DC4FECCFDF91CF91FF90B5
:100C0000EF90DF90CF9008950197009739F0880F0B
:100C1000991F880F991F02970197F1F7089578940B
:100C200084B5826084BD84B5816084BD85B58260F1
:100C300085BD85B5816085BDEEE6F0E0808181608F
:100C40008083E1E8F0E0108280818260808380818F
:100C500081608083E0E8F0E0808181608083E1EB67
:100C6000F0E0808184608083E0EBF0E0808181604F
:100C70008083EAE7F0E08081846080838081826005
:100C800080838081816080838081806880831092EE
:100C9000C1000895833081F028F4813099F08230CA
:100CA000A1F008958630A9F08730B9F08430D1F4EE
:100CB000809180008F7D03C0809180008F7780932A
:100CC0008000089584B58F7702C084B58F7D84BD80
:100CD00008958091B0008F7703C08091B0008F7D20
:100CE0008093B0000895CF93DF9390E0FC01E25829
:100CF000FE4F2491FC01EE56FE4F8491882349F16A
:100D000090E0880F991FFC01E654FE4FA591B49125
:100D100080559E4FFC01C591D4919FB7611108C0C9
:100D2000F8948C91209582238C93888182230AC029
:100D3000623051F4F8948C91322F309583238C9348
:100D40008881822B888304C0F8948C91822B8C93A9
:100D50009FBFDF91CF9108950F931F93CF93DF93A0
:100D60001F92CDB7DEB7282F30E0F901E659FE4FCC
:100D70008491F901E258FE4F1491F901EE56FE4FAD
:100D800004910023C9F0882321F069830E944A0658
:100D90006981E02FF0E0EE0FFF1FE055FE4FA591B7
:100DA000B4919FB7F8948C91611103C01095812381
:100DB00001C0812B8C939FBF0F90DF91CF911F912A
:100DC0000F910895CF93DF93282F30E0F901E65972
:100DD000FE4F8491F901E258FE4FD491F901EE568D
:100DE000FE4FC491CC2391F081110E944A06EC2F52
:100DF000F0E0EE0FFF1FEA55FE4FA591B4912C9144
:100E00002D2381E090E021F480E002C080E090E0BA
:100E1000DF91CF9108950E940F060E940D01C3EE4D
:100E2000D7E00E9474012097E1F30E94E307F9CF15
:100E3000FC0124853585F901E05CFF4F80819181BB
:100E4000329620813181821B930B8F7399270895ED
:100E5000FC0184859585FC01E05CFF4F4081518158
:100E60003296208131814217530741F00190F08181
:100E7000E02DE80FF91F808190E008958FEF9FEF3C
:100E80000895FC0184859585FC01E05CFF4F40815D
:100E900051813296208131814217530779F0A08128
:100EA000B181A80FB91F8C91208131812F5F3F4FF5
:100EB0002F7333273183208390E008958FEF9FEFC6
:100EC0000895FC0181A1882329F0A489B5898C911A
:100ED00086FFFBCF11A20895CF93DF93FC012685F7
:100EE0003785D901A05CBF4F8D919C9111970196D8
:100EF0008F739927E901CE5BDF4F488159818417B1
:100F00009507D9F30D90BC91A02DA20FB31F6C9340
:100F1000A685B785A05CBF4F11969C938E93A6893A
:100F2000B7892C9181E090E0078C02C0880F991F4F
:100F30000A94E2F7282B2C9381E081A30488F58999
:100F4000E02D80818064808381E090E0DF91CF910B
:100F500008951F920F920FB60F9211242F933F9373
:100F60004F938F939F93EF93FF938091C00082FDE7
:100F70001CC04091C6008091580290915902019680
:100F80008F73992720915A0230915B028217930741
:100F900071F0E0915802F0915902E85EFD4F4083F4
:100FA000909359028093580202C08091C600FF912D
:100FB000EF919F918F914F913F912F910F900FBE85
:100FC0000F901F90189582EB91E00E941807892BD3
:100FD00011F00C94B70108951F920F920FB60F9263
:100FE00011242F933F938F939F93EF93FF9320911F
:100FF0001402309115028091160290911702281761
:10100000390731F48091C1008F7D8093C10014C0F5
:10101000E0911602F0911702EC52FE4F2081809170
:1010200016029091170201968F73992790931702D9
:10103000809316022093C600FF91EF919F918F91AC
:101040003F912F910F900FBE0F901F901895CF9248
:10105000DF92EF92FF92CF93DF93EC016A017B0165
:10106000411581EE580761057105F9F0EC89FD899C
:1010700081E090E008A002C0880F991F0A94E2F76F
:10108000808360E079E08DE390E0A70196010E9403
:10109000610A215031094109510956954795379503
:1010A0002795211580E1380798F0EC89FD89108299
:1010B00060E874E88EE190E0A70196010E94610A61
:1010C0002150310941095109569547953795279582
:1010D000E889F9893083EA89FB89208319A2EE899E
:1010E000FF89408181E090E09C010C8C02C0220FBE
:1010F000331F0A94E2F7422B4083EE89FF89408137
:101100009C010D8C02C0220F331F0A94E2F7422B80
:101110004083EE89FF8940819C010E8C02C0220F22
:10112000331F0A94E2F7422B4083EE89FF89208126
:101130000F8C02C0880F991F0A94E2F780958223D2
:101140008083DF91CF91FF90EF90DF90CF90089553
:101150001092B5011092B40188EE93E0A0E0B0E0E7
:101160008093B6019093B701A093B801B093B901F1
:101170008AE291E09093B3018093B20188E192E01A
:101180009093BF018093BE0184ED91E09093C101E3
:101190008093C00185EC90E09093C3018093C201DD
:1011A00084EC90E09093C5018093C40180EC90E0C2
:1011B0009093C7018093C60181EC90E09093C901A0
:1011C0008093C80182EC90E09093CB018093CA0198
:1011D00086EC90E09093CD018093CC0184E08093E5
:1011E000CE0183E08093CF0187E08093D00185E03A
:1011F0008093D10181E08093D2010895CF92DF9254
:10120000EF92FF920F931F93CF93DF936C017A01BC
:10121000EB01E60EF71E00E010E0CE15DF0561F0F1
:101220006991D601ED91FC910190F081E02DC6010C
:101230000995080F191FF1CFC801DF91CF911F91B8
:101240000F91FF90EF90DF90CF9008956115710599
:1012500081F0DB010D900020E9F7AD01415051090B
:10126000461B570BDC01ED91FC910280F381E02DD0
:10127000099480E090E00895EF92FF920F931F93FE
:10128000CF93DF938C01FB01C0E0D0E064917F013C
:101290008FEFE81AF80A662361F0D801ED91FC910E
:1012A0000190F081E02DC8010995C80FD91FF70101
:1012B000EDCFCE01DF91CF911F910F91FF90EF9075
:1012C00008950C942609DC01ED91FC910190F081C8
:1012D000E02D09940F931F93CF93DF93EC016DE002
:1012E0000E9463098C016AE0CE010E946309800FAD
:1012F000911FDF91CF911F910F9108950F931F932D
:10130000CF93DF93EC010E943C098C01CE010E9437
:101310006A09800F911FDF91CF911F910F9108955E
:101320000F931F93CF93DF93EC010E9426098C014A
:10133000CE010E946A09800F911FDF91CF911F910A
:101340000F9108958F929F92AF92BF92CF92DF92AA
:10135000EF92FF920F931F93CF93DF93CDB7DEB73A
:10136000A1970FB6F894DEBF0FBECDBF7C01C42E8F
:10137000E52FCB01D22E19A221E02D1510F02AE085
:10138000D22E8E010F5D1F4F8D2C912CA12CB12CD4
:101390006C2D7E2FA50194010E94610A8C2DD29E96
:1013A00080191124015011098A3014F4805D01C0A4
:1013B000895CF8018083211531054105510521F033
:1013C000C22EE32FCA01E4CFB801C7010E9426094B
:1013D000A1960FB6F894DEBF0FBECDBFDF91CF91BF
:1013E0001F910F91FF90EF90DF90CF90BF90AF9043
:1013F0009F908F900895CF92DF92EF92FF920F937C
:101400001F93CF93DF93EC016A017B012115310516
:1014100079F4E881F9810190F081E02D642FDF916A
:10142000CF911F910F91FF90EF90DF90CF90099493
:101430002A303105E9F477FF1AC06DE20E94630992
:101440008C0144275527BA014C195D096E097F09A3
:101450002AE0CE010E94A209800F911FDF91CF9157
:101460001F910F91FF90EF90DF90CF9008952AE0A9
:10147000B701A601CE01DF91CF911F910F91FF908F
:10148000EF90DF90CF900C94A2099A01AB016627F0
:1014900057FD6095762F0C94FB092115310541F419
:1014A000DC01ED91FC910190F081E02D642F099415
:1014B0000C94A2099A01462F50E060E070E00C9471
:1014C0004D0AA1E21A2EAA1BBB1BFD010DC0AA1FCB
:1014D000BB1FEE1FFF1FA217B307E407F50720F09D
:1014E000A21BB30BE40BF50B661F771F881F991F18
:1014F0001A9469F760957095809590959B01AC0161
:10150000BD01CF010895EE0FFF1F0590F491E02D6E
:061510000994F894FFCFDE
:10151600414453313239392D41726475696E6F20F9
:10152600554E4F204578616D706C652032003078DD
:101536000030002C2000000000006C07FE08180791
:06154600410728076107C0
:00000001FF
