:100000000C94E3000C940B010C940B010C940B0169
:100010000C940B010C940B010C940B010C940B0130
:100020000C940B010C940B010C940B010C940B0120
:100030000C940B010C940B010C940B010C940B0110
:100040000C945E050C940B010C94A2070C94E5072C
:100050000C940B010C940B010C940B010C940B01F0
:100060000C940B010C940B01434F4E464947342C22
:1000700020004D495343322C20004D495343312C2D
:1000800020004750494F2C20004C4F46465F5354A8
:1000900041544E2C20004C4F46465F53544154501F
:1000A0002C20004C4F46465F464C49502C20004CBB
:1000B0004F46465F53454E534E2C20004C4F46460C
:1000C0005F53454E53502C2000424941535F5345E6
:1000D0004E534E2C2000424941535F53454E5350DE
:1000E0002C20004348385345542C200043483753B4
:1000F00045542C20004348365345542C2000434897
:10010000355345542C20004348345345542C20008B
:100110004348335345542C20004348325345542C14
:1001200020004348315345542C20004C4F46462C68
:100130002000434F4E464947332C2000434F4E4644
:100140004947322C2000434F4E464947312C20006E
:1001500049442C2000206D6F6469666965642E0037
:100160005265676973746572200000000007000221
:10017000010000030406000000000000000001026E
:100180000408102040800102040810200102040825
:100190001020040404040404040402020202020203
:1001A00003030303030300000000230026002900CB
:1001B00000000000250028002B00000000002400A3
:1001C00027002A00A10811241FBECFEFD8E0DEBF10
:1001D000CDBF11E0A0E0B1E0E4EEF4E102C0059093
:1001E0000D92A831B107D9F722E0A8E1B1E001C032
:1001F0001D92AE33B207E1F711E0C6ECD1E004C0C6
:100200002297FE010E946C0AC43CD107C9F70E94E4
:1002100004070C94700A0C940000EF920F931F9344
:10022000E12C08E010E02AE030E049E050E068E02E
:1002300070E087E291E00E94C40140E052EC61E08E
:1002400070E084E991E00E94200860ED77E080E0B2
:1002500090E00E94D7051092890187E291E00E9408
:10026000CA0287E291E00E94160347E160E087E25C
:1002700091E00E94B40340EE63E087E291E00E94C7
:10028000580463E087E291E00E94430387E291E033
:100290001F910F91EF900C940103CF93DF93EC012A
:1002A0008091190190911A018C179D07A4F488E0A0
:1002B0000E94DB06892BD9F787E291E00E94970420
:1002C0002091190130911A012F5F3F4F30931A018D
:1002D00020931901E5CFDF91CF91089587E291E056
:1002E0000E94DF020E94A80560931F017093200105
:1002F000809321019093220184EF91E00E944D01AF
:100300000E94A80560932301709324018093250126
:100310009093260187E291E00E94F00280912301F0
:1003200090912401A0912501B091260140911F01D7
:10033000509120016091210170912201841B950B45
:10034000A60BB70B80931B0190931C01A0931D017A
:10035000B0931E011092180110921A011092190107
:100360000895CF93C1E084E991E00E941107892BA1
:1003700049F084E991E00E943A078837A1F7C093D9
:100380001801F1CFCF910895EF92FF920F931F9331
:10039000CF93DF93EC01F42EFC01ED59FF4FE08287
:1003A000798368833B832A8362E370E080E090E096
:1003B0000E94D70561E08F2D0E946C0660E08F2DB2
:1003C0000E946C0684E090E00E94FD0561E08F2DA4
:1003D0000E946C0684E190E00E94FD0561E08DE0E2
:1003E0000E946C0661E08BE00E946C0661E08AE08E
:1003F0000E946C0660E08DE00E94A50660E08BE044
:100400000E94A50661E08AE00E94A5068CB5806185
:100410008CBD8CB580648CBD8CB58F7D8CBD8CB54E
:10042000837F84608CBD0430110571F008301105A4
:1004300031F00130110551F41D830C8307C024E015
:1004400030E03D832C8302C01D821C829CB59C7FC2
:100450008C81982B9CBD9DB59E7F8C81982B9DBDDA
:1004600060E088810E946C0661E08A810E946C06CF
:1004700061E08A810E94A50661E08F2DDF91CF9116
:100480001F910F91FF90EF900C94A506611103C08E
:1004900060E571E072C0613019F466E471E06DC02E
:1004A000623019F46CE371E068C0633019F462E300
:1004B00071E063C0643019F46BE271E05EC06530D6
:1004C00019F462E271E059C0663019F469E171E033
:1004D00054C0673019F460E171E04FC0683019F41E
:1004E00067E071E04AC0693019F46EEF70E045C012
:1004F0006A3019F465EF70E040C06B3019F46CEEAF
:1005000070E03BC06C3019F463EE70E036C06D30C3
:1005100019F466ED70E031C06E3019F469EC70E0EA
:100520002CC06F3019F46CEB70E027C0603119F407
:100530006FEA70E022C0613119F463EA70E01DC017
:10054000623119F466E970E018C0633119F469E8A2
:1005500070E013C0643119F462E870E00EC06531D8
:1005600019F46AE770E009C0663119F462E770E0D7
:1005700004C0673131F468E670E084E991E00C94DE
:1005800035090895F8946EBD0DB407FEFDCF78943B
:100590008EB50895CF93DF93EC0160E08A810E94CD
:1005A000A50666E0CE010E94C2028CE090E00E94A7
:1005B000FD0561E08A81DF91CF910C94A506CF9370
:1005C000DF93EC0160E08A810E94A50668E0CE011D
:1005D0000E94C20261E08A81DF91CF910C94A5064E
:1005E000CF93DF93EC0160E08A810E94A5066AE068
:1005F000CE010E94C20261E08A81DF91CF910C940A
:10060000A506CF93DF93EC0160E08A810E94A506E6
:1006100060E1CE010E94C20261E08A810E94A506CB
:1006200083E090E0DF91CF910C94FD05CF93DF93B1
:10063000EC0160E08A810E94A50661E1CE010E9482
:10064000C20261E08A810E94A50683E090E0DF910A
:10065000CF910C94FD05CF93C62F60E071E084E943
:1006600091E00E945A09C03130F463E071E084E9FE
:1006700091E00E945A0940E150E06C2F84E991E03A
:10068000CF910C94410AEF92FF920F931F93CF9357
:10069000DF93EC01F62E60E08A810E94A50660E2FD
:1006A0006F0DCE010E94C20260E0CE010E94C20224
:1006B0000F2D10E060E0CE010E94C2020C0F1D1F42
:1006C000F801828761E08A810E94A506FE01EE5949
:1006D000FF4F8081882309F43EC06F2DCE010E9418
:1006E00046026F2DCE010E942B0365E071E084E984
:1006F00091E00E945A09F8016285CE010E942B0305
:1007000065E071E084E991E00E945A09C7E0D0E019
:100710007801FAE0EF0EF11CF701608170E00C2E19
:1007200002C0759567950A94E2F7617077274AE0F1
:1007300050E084E991E00E942C0ACC2331F065E07E
:1007400071E084E991E00E945A09219728F784E931
:1007500091E00E946309F8018285DF91CF911F919A
:100760000F91FF90EF9008955F926F927F928F921A
:100770009F92AF92BF92CF92DF92EF92FF920F9330
:100780001F93CF93DF93EC01562EE42E60E08A8115
:100790000E94A50660E2650DCE010E94C2026E2D88
:1007A000CE010E94C20200E010E0F12C6E01C50CE7
:1007B000D11CE016F1065CF060E0CE010E94C2029E
:1007C000F601E00FF11F82870F5F1F4FF2CF61E04C
:1007D0008A810E94A506FE01EE59FF4F8081882381
:1007E00009F456C000E010E05E01A50CB11CB7E0B2
:1007F0008B2E912CD52CD00E6D2DCE010E94460251
:100800006D2DCE010E942B0365E071E084E991E03B
:100810000E945A096501C00ED11EF6016285CE0103
:100820000E942B0365E071E084E991E00E945A097F
:10083000612C712CF601628570E0C401861997095C
:1008400002C0759567958A95E2F7617077274AE04F
:1008500050E084E991E00E942C0AF7E06F167104E1
:1008600031F065E071E084E991E00E945A098FEF70
:10087000681A780AE8E06E167104E1F684E991E0FE
:100880000E9463090F5F1F4FE016F1060CF0B2CF14
:10089000DF91CF911F910F91FF90EF90DF90CF905C
:1008A000BF90AF909F908F907F906F905F900895D2
:1008B0000F931F93CF93DF93EC01162F042F60E06B
:1008C0008A810E94A50660E4610FCE010E94C202E7
:1008D00060E0CE010E94C202602FCE010E94C202DF
:1008E00061E08A810E94A506FE01E10FF11D0287E9
:1008F000FE01EE59FF4F80818823A1F060E671E090
:1009000084E991E00E943509612FCE010E942B03FA
:1009100065E571E084E991E0DF91CF911F910F913E
:100920000C947709DF91CF911F910F910895AF92A9
:10093000BF92CF92DF92EF92FF920F931F93CF93CC
:10094000DF938C0160E0FC0182810E94A506C3E078
:10095000D0E060E0C8010E94C202F801D680C12C3C
:100960009601282BC901978386832197209789F7C1
:10097000E801A096680133E0A32EB12C60E0C80125
:100980000E94C202F60142A153A164A175A1762F73
:10099000652F542F4427482B42A353A364A375A368
:1009A000F1E0AF1AB108A114B10441F724E0C20E7E
:1009B000D11CCC16DD06F9F6F801ED59FF4F808108
:1009C000882309F43FC023E0C22ED12C60E0C80187
:1009D0000E94C202F801F680E12C9701282BC90180
:1009E0009187808731E0C31AD108C114D10471F70F
:1009F000780183E0A82EB12C670132E4C30ED11C2C
:100A000060E0C8010E94C202F6014081518162810A
:100A10007381762F652F542F4427482B40835183B1
:100A200062837383F1E0AF1AB108A114B10441F7F6
:100A300024E0E20EF11CEC16FD06D9F6C0E1CC2E46
:100A4000D12C03C0D8E0CD2ED12C61E0F8018281F9
:100A50000E94A506E801780100E010E0F70182A1FC
:100A600093A1A4A1B5A12496A7FF02C0BF6F01C0A6
:100A7000BB278E8F9F8FA8A3B9A34E8D5F8D68A1D2
:100A800079A12AE030E084E991E00E94E20984E95A
:100A900091E00E945A070F5F1F4FF4E0EF0EF11C28
:100AA0000C151D05DCF2DF91CF911F910F91FF9086
:100AB000EF90DF90CF90BF90AF9008951F920F926C
:100AC0000FB60F9211242F933F938F939F93AF9361
:100AD000BF9380918C0190918D01A0918E01B09176
:100AE0008F0130918B0123E0230F2D3720F40196E5
:100AF000A11DB11D05C026E8230F0296A11DB11D41
:100B000020938B0180938C0190938D01A0938E0193
:100B1000B0938F018091900190919101A0919201E9
:100B2000B09193010196A11DB11D80939001909306
:100B30009101A0939201B0939301BF91AF919F91C6
:100B40008F913F912F910F900FBE0F901F9018958E
:100B50002FB7F89460918C0170918D0180918E0176
:100B600090918F012FBF08953FB7F8948091900125
:100B700090919101A0919201B091930126B5A89B0B
:100B800005C02F3F19F00196A11DB11D3FBF66277B
:100B9000782F892F9A2F620F711D811D911D42E0C0
:100BA000660F771F881F991F4A95D1F70895CF9236
:100BB000DF92EF92FF92CF93DF936B017C010E9453
:100BC000B405EB01C114D104E104F10479F00E94F1
:100BD000B4056C1B7D0B683E7340A0F381E0C81A1E
:100BE000D108E108F108C851DC4FECCFDF91CF917B
:100BF000FF90EF90DF90CF9008950197009739F024
:100C0000880F991F880F991F02970197F1F7089590
:100C1000789484B5826084BD84B5816084BD85B5D7
:100C2000826085BD85B5816085BDEEE6F0E080819E
:100C300081608083E1E8F0E01082808182608083BF
:100C4000808181608083E0E8F0E080818160808342
:100C5000E1EBF0E0808184608083E0EBF0E0808174
:100C600081608083EAE7F0E0808184608083808116
:100C700082608083808181608083808180688083BE
:100C80001092C1000895833081F028F4813099F0EA
:100C90008230A1F008958630A9F08730B9F0843011
:100CA000D1F4809180008F7D03C0809180008F7788
:100CB00080938000089584B58F7702C084B58F7DBE
:100CC00084BD08958091B0008F7703C08091B000FB
:100CD0008F7D8093B0000895CF93DF9390E0FC0167
:100CE000E258FE4F2491FC01EE56FE4F849188237A
:100CF00049F190E0880F991FFC01E654FE4FA59141
:100D0000B49180559E4FFC01C591D4919FB761115C
:100D100008C0F8948C91209582238C93888182233B
:100D20000AC0623051F4F8948C91322F30958323AD
:100D30008C938881822B888304C0F8948C91822BB9
:100D40008C939FBFDF91CF9108950F931F93CF9303
:100D5000DF931F92CDB7DEB7282F30E0F901E659B7
:100D6000FE4F8491F901E258FE4F1491F901EE56BD
:100D7000FE4F04910023C9F0882321F069830E946B
:100D800043066981E02FF0E0EE0FFF1FE055FE4FB4
:100D9000A591B4919FB7F8948C91611103C01095FF
:100DA000812301C0812B8C939FBF0F90DF91CF9146
:100DB0001F910F910895CF93DF93282F30E0F90111
:100DC000E659FE4F8491F901E258FE4FD491F901A2
:100DD000EE56FE4FC491CC2391F081110E94430640
:100DE000EC2FF0E0EE0FFF1FEA55FE4FA591B491F6
:100DF0002C912D2381E090E021F480E002C080E07E
:100E000090E0DF91CF9108950E9408060E940D01A5
:100E1000CCEDD7E00E946E012097E1F30E94DC0741
:100E2000F9CFFC0124853585F901E05CFF4F808115
:100E30009181329620813181821B930B8F73992788
:100E40000895FC0184859585FC01E05CFF4F40819D
:100E500051813296208131814217530741F0019030
:100E6000F081E02DE80FF91F808190E008958FEF69
:100E70009FEF0895FC0184859585FC01E05CFF4FA0
:100E8000408151813296208131814217530779F098
:100E9000A081B181A80FB91F8C91208131812F5F72
:100EA0003F4F2F7333273183208390E008958FEFD6
:100EB0009FEF0895FC0181A1882329F0A489B589B9
:100EC0008C9186FFFBCF11A20895CF93DF93FC0195
:100ED00026853785D901A05CBF4F8D919C911197D4
:100EE00001968F739927E901CE5BDF4F48815981C5
:100EF00084179507D9F30D90BC91A02DA20FB31FB5
:100F00006C93A685B785A05CBF4F11969C938E937A
:100F1000A689B7892C9181E090E0078C02C0880FE8
:100F2000991F0A94E2F7282B2C9381E081A304886F
:100F3000F589E02D80818064808381E090E0DF91FD
:100F4000CF9108951F920F920FB60F9211242F93F5
:100F50003F934F938F939F93EF93FF938091C000A4
:100F600082FD1CC04091C60080913A0290913B02E4
:100F700001968F73992720913C0230913D02821790
:100F8000930771F0E0913A02F0913B02E650FE4F78
:100F9000408390933B0280933A0202C08091C60046
:100FA000FF91EF919F918F914F913F912F910F90D2
:100FB0000FBE0F901F90189584E991E00E941107D1
:100FC000892B11F00C94B10108951F920F920FB666
:100FD0000F9211242F933F938F939F93EF93FF933F
:100FE0002091F6013091F7018091F8019091F9017B
:100FF0002817390731F48091C1008F7D8093C1009B
:1010000014C0E091F801F091F901EA54FE4F2081FB
:101010008091F8019091F90101968F73992790932F
:10102000F9018093F8012093C600FF91EF919F9101
:101030008F913F912F910F900FBE0F901F90189599
:10104000CF92DF92EF92FF92CF93DF93EC016A0190
:101050007B01411581EE580761057105F9F0EC89B6
:10106000FD8981E090E008A002C0880F991F0A94D2
:10107000E2F7808360E079E08DE390E0A7019601DC
:101080000E94480A21503109410951095695479556
:1010900037952795211580E1380798F0EC89FD896F
:1010A000108260E874E88EE190E0A70196010E944A
:1010B000480A2150310941095109569547953795FC
:1010C0002795E889F9893083EA89FB89208319A269
:1010D000EE89FF89408181E090E09C010C8C02C088
:1010E000220F331F0A94E2F7422B4083EE89FF89D7
:1010F00040819C010D8C02C0220F331F0A94E2F73D
:10110000422B4083EE89FF8940819C010E8C02C0F6
:10111000220F331F0A94E2F7422B4083EE89FF89A6
:1011200020810F8C02C0880F991F0A94E2F78095E6
:1011300082238083DF91CF91FF90EF90DF90CF905B
:101140000895109297011092960188EE93E0A0E026
:10115000B0E08093980190939901A0939A01B09385
:101160009B018CE091E090939501809394018AEF2C
:1011700091E09093A1018093A00186EB91E0909380
:10118000A3018093A20185EC90E09093A501809348
:10119000A40184EC90E09093A7018093A60180ECD9
:1011A00090E09093A9018093A80181EC90E0909346
:1011B000AB018093AA0182EC90E09093AD01809303
:1011C000AC0186EC90E09093AF018093AE0184E097
:1011D0008093B00183E08093B10187E08093B201F6
:1011E00085E08093B30181E08093B4010895CF92AC
:1011F000DF92EF92FF920F931F93CF93DF936C01D7
:101200007A01EB01E60EF71E00E010E0CE15DF05D7
:1012100061F06991D601ED91FC910190F081E02D92
:10122000C6010995080F191FF1CFC801DF91CF91B1
:101230001F910F91FF90EF90DF90CF90089561156F
:10124000710581F0DB010D900020E9F7AD014150FF
:101250005109461B570BDC01ED91FC910280F38193
:10126000E02D099480E090E00895EF92FF920F93B3
:101270001F93CF93DF938C01FB01C0E0D0E064911A
:101280007F018FEFE81AF80A662361F0D801ED912B
:10129000FC910190F081E02DC8010995C80FD91F7C
:1012A000F701EDCFCE01DF91CF911F910F91FF900C
:1012B000EF9008950C941F09DC01ED91FC910190D1
:1012C000F081E02D09940F931F93CF93DF93EC01EE
:1012D0006DE00E945C098C016AE0CE010E945C090D
:1012E000800F911FDF91CF911F910F9108950F9360
:1012F0001F93CF93DF93EC010E9435098C01CE013F
:101300000E946309800F911FDF91CF911F910F9170
:1013100008958F929F92AF92BF92CF92DF92EF92F9
:10132000FF920F931F93CF93DF93CDB7DEB7A197B3
:101330000FB6F894DEBF0FBECDBF7C01C42EE52FE3
:10134000CB01D22E19A221E02D1510F02AE0D22EC9
:101350008E010F5D1F4F8D2C912CA12CB12C6C2D6B
:101360007E2FA50194010E94480A8C2DD29E8019DF
:101370001124015011098A3014F4805D01C0895C88
:10138000F8018083211531054105510521F0C22E58
:10139000E32FCA01E4CFB801C7010E941F09A1963B
:1013A0000FB6F894DEBF0FBECDBFDF91CF911F9176
:1013B0000F91FF90EF90DF90CF90BF90AF909F90F4
:1013C0008F900895CF92DF92EF92FF920F931F9329
:1013D000CF93DF93EC016A017B012115310579F48C
:1013E000E881F9810190F081E02D642FDF91CF91A8
:1013F0001F910F91FF90EF90DF90CF9009942A30CA
:101400003105E9F477FF1AC06DE20E945C098C0196
:1014100044275527BA014C195D096E097F092AE056
:10142000CE010E948909800F911FDF91CF911F91FA
:101430000F91FF90EF90DF90CF9008952AE0B701D1
:10144000A601CE01DF91CF911F910F91FF90EF90F8
:10145000DF90CF900C9489099A01AB01662757FD64
:101460006095762F0C94E2092115310541F4DC01D9
:10147000ED91FC910190F081E02D642F09940C9482
:1014800089099A01462F50E060E070E00C94340A1C
:10149000A1E21A2EAA1BBB1BFD010DC0AA1FBB1F78
:1014A000EE1FFF1FA217B307E407F50720F0A21BEA
:1014B000B30BE40BF50B661F771F881F991F1A9457
:1014C00069F760957095809590959B01AC01BD0181
:1014D000CF010895EE0FFF1F0590F491E02D0994C0
:0414E000F894FFCFAE
:1014E40030780030002C2000000000006507F70869
:0814F40011073A0721075A070E
:00000001FF
